:020000040800F2
:100000000809002045010008E50F0008E70F000877
:10001000EB0F0008EF0F0008F30F000800000000CE
:10002000000000000000000000000000F70F0008C2
:10003000F90F000800000000FB0F0008FD0F00088A
:100040005F0100085F0100085F0100085F01000810
:100050005F0100085F0100085F0100085F01000800
:100060005F0100085F0100085F0100085F010008F0
:100070005F0100085F0100085F0100085F010008E0
:100080005F0100085F0100085F0100085F010008D0
:100090005F0100085F0100085F0100085F010008C0
:1000A0005F0100085F0100085F0100085F010008B0
:1000B0005F0100085F0100085F0100085F010008A0
:1000C0005F0100085F0100085F0100085F01000890
:1000D0005F0100085F0100085F01000805100008CB
:1000E0005F0100085F0100085F0100085F01000870
:1000F0005F0100085F0100085F0100085F01000860
:100100005F0100085F0100085F0100085F0100084F
:100110005F0100085F0100085F0100085F0100083F
:100120005F0100085F0100085F0100085F0100082F
:10013000DFF80CD002F03AF8004800472D0F000815
:10014000080900200648804706480047FEE7FEE70A
:10015000FEE7FEE7FEE7FEE7FEE7FEE7FEE7FEE777
:1001600047020008310100080CB500200190009002
:100170006C48006840F480306A49086000BF6948F4
:10018000006800F4003000900198401C0190009835
:1001900018B90198B0F5A06FF1D16248006800F479
:1001A000003010B10120009001E000200090009884
:1001B000012843D15C48006840F010005A490860AB
:1001C0000846006820F0030008600846006840F018
:1001D0000200086053484068524948600846406839
:1001E00048600846406840F48060486008464068BF
:1001F00020F47C1048600846406840F4E8104860ED
:100200000846006840F08070086000BF45480068FC
:1002100000F000700028F9D04248406820F0030048
:10022000404948600846406840F00200486000BF0E
:100230003C48406800F00C000828F9D10CBD10B50E
:10024000FFF792FF10BD10B53648006840F001007E
:1002500034490860084640683449084031494860DC
:1002600008460068324908402E4908600846006880
:1002700020F4802008600846406820F4FE004860B2
:100280004FF41F008860FFF7DAFF4FF00060294944
:10029000086010BD10B5002100200022214B5B68D2
:1002A00003F00C0121B1042906D0082928D107E068
:1002B000214B224C236027E01F4B204C236023E07E
:1002C000184B5B6803F47010164B5B6803F48032C4
:1002D000022303EB904022B9194B4343174C236090
:1002E0000DE0104B5B6803F4003323B1144B434320
:1002F000124C236003E0104B4343104C236003E097
:100300000D4B0E4C236000BF00BF064B5B68C3F370
:1003100003130C4CE15C094B1B68CB40074C23607A
:1003200010BD000000100240002002400000FFF855
:10033000FFFFF6FE08ED00E000127A00000000204A
:1003400000093D000400002031490143314A116099
:10035000704770B5002100230F22C47804B32D4CE0
:10036000246804F4E064C4F5E064210AC1F10403E4
:10037000CA40447804FA03F1847814402143090107
:10038000254C0678A155047804F01F050124AC40E3
:1003900005786D11AD0005F1E025C5F8004109E0D3
:1003A000047804F01F050124AC401C4D067876113A
:1003B00045F8264070BD1A4A0A400243154B1B1FE0
:1003C0001A60704739B1134A121D12680243114B6B
:1003D0001B1D1A6006E00F4A121D126882430D4B66
:1003E0001B1D1A607047042808D14FF0E0210969ED
:1003F00041F004014FF0E022116107E04FF0E021ED
:10040000096921F004014FF0E022116170470000FA
:100410000000FA050CED00E000E400E080E100E0FF
:1004200080FFFF1F10B50446CC48844208D101214B
:10043000042000F02DFB0021042000F029FB46E001
:10044000C748844208D10121082000F021FB002187
:10045000082000F01DFB3AE0C248844208D1012187
:10046000102000F015FB0021102000F011FB2EE001
:10047000BD48844208D10121202000F009FB002161
:10048000202000F005FB22E0B848844208D1012179
:10049000402000F0FDFA0021402000F0F9FA16E0BB
:1004A000B348844208D10121802000F0F1FA0021F4
:1004B000802000F0EDFA0AE0AE48844207D1012125
:1004C000801500F0E5FA0021A01500F0E1FA10BD5A
:1004D00010B50121084600F0DBFA0021012000F0F0
:1004E000D7FA10BD2DE9F041024600250026002074
:1004F00000230024002791F803C00CF00F0591F8A9
:1005000003C00CF0100CBCF1000F03D091F802C036
:100510004CEA050591F800C0BCF1000F31D0146819
:1005200000202BE04FF0010C0CFA00F3B1F800C0F2
:100530000CEA03069E4220D183004FF00F0C0CFA08
:1005400003F7BC4305FA03FC4CEA040491F803C02A
:10055000BCF1280F06D14FF0010C0CFA00FCC2F8D8
:1005600014C00AE091F803C0BCF1480F05D14FF068
:10057000010C0CFA00FCC2F810C0401C0828D1D3B2
:100580001460B1F800C0BCF1FF0F34DD54680020E6
:100590002EE000F1080C4FF0010808FA0CF3B1F856
:1005A00000C00CEA03069E4221D183004FF00F0CDD
:1005B0000CFA03F7BC4305FA03FC4CEA040491F877
:1005C00003C0BCF1280F05D100F1080C08FA0CF8A3
:1005D000C2F8148091F803C0BCF1480F07D100F1B4
:1005E000080C4FF0010808FA0CF8C2F81080401C03
:1005F0000828CED35460BDE8F0814FF6FF7101802A
:10060000022181700421C170704702460020936866
:100610000B400BB1012000E00020704701468868C4
:1006200080B2704702460020D3680B400BB1012016
:1006300000E0002070470146C86880B27047016141
:100640007047416170470AB1016100E04161704744
:10065000C16070474FF480320A43826181618261D8
:1006600082698269704702460020434B18684FF642
:100670008073184040EA021008433F4B18607047EF
:100680003E49C8617047F0B50A46002300240021A6
:10069000002500F00046B6F1004F02D1364EF16958
:1006A00001E0354E7168C0F3034583B200F4401693
:1006B000B6F5401F08D121F070612F4E766826F004
:1006C00070662D4F7E6012E000F48016B6F5801F34
:1006D00006D1032606FA05F4A14341F0706106E055
:1006E000460D360103FA06F6B14341F0706122B1BE
:1006F000460D360103FA06F6314300F00046B6F126
:10070000004F02D11C4EF16101E01B4E7160F0BD43
:1007100030B500228B071C0F0F2303FA04F2164B8F
:1007200008338C1053F824309343134C08348D1045
:1007300044F8253023468C1053F824308C07240FBE
:1007400000FA04F423430C4C08348D1044F825308F
:1007500030BD0A49DC3108607047000000080140E4
:10076000000C01400010014000140140001801403D
:10077000001C014000200140000001400000204218
:10078000DF48006840F00100DD4908600846406825
:10079000DC490840DA49486008460068DA49084000
:1007A000D74908600846006820F4802008600846A1
:1007B000406820F4FE0048604FF41F0088607047D6
:1007C000CF49096821F48031CD4A1160114609688A
:1007D00021F480211160B0F5803F03D0B0F5802F67
:1007E0000ED106E0C649096841F48031C44A11605F
:1007F00007E0C349096841F4A021C14A116000E043
:1008000000BF00BF704710B5014600220023002042
:100810004A11012A02D1BA4C236806E0022A02D109
:10082000B74C236A01E0B64C636A01F01F02012451
:1008300094401C400CB1012000E0002010BD38B5F0
:10084000002000900024002500BF3120FFF7DBFFCF
:1008500005460098401C00900098B0F5A06F01D0AC
:10086000002DF2D03120FFF7CEFF08B1012400E0C7
:100870000024204638BD01460020A14A106820F01F
:10088000F80040EAC10010607047A0490860704756
:10089000024600209A4B586820F47C1042EA01037B
:1008A0001843974B5860704798490866704701464F
:1008B0000020934A506820F00300084350607047BE
:1008C0008F48406800F00C007047014600208C4AB9
:1008D000506820F0F0000843506070470146002047
:1008E000874A506820F4E060084350607047014632
:1008F0000020834A506820F4605040EAC1005060F4
:10090000704729B17E4A527A02437D4B5A7204E005
:100910007B4A527A82437A4B5A7270477B49D8316C
:100920000860704701460020754A506820F4404036
:100930000843506070470021714A20321170704A9C
:1009400082F82010012802D004280AD104E00121F5
:100950006B4A2032117005E00521694A203211707E
:1009600000E000BF00BF70476949086070476449F4
:10097000096A0143624A1162704765494439086057
:10098000704730B500210022002400235C4D6D68C3
:1009900005F00C0121B1042905D0082923D105E077
:1009A0005C4D056022E05B4D05601FE0544D6D68B5
:1009B00005F47012524D6D6805F48034022505EB84
:1009C00092421CB9544D554305600BE04C4D6D6887
:1009D00005F400351DB1504D5543056002E04D4D05
:1009E0005543056002E04B4D056000BF00BF444D1C
:1009F0006D6805F0F0010909484D6B5C0568DD4044
:100A000045603F4D6D6805F4E061090A434D6B5C3C
:100A10004568DD4085603A4D6D6805F46051C90A4E
:100A20003E4D6B5C4568DD40C560354D6D6805F435
:100A30004041890B3A4D6B5CC568B5FBF3F5056128
:100A400030BD29B12E4A526902432D4B5A6104E050
:100A50002B4A526982432A4B5A61704729B1284A6E
:100A600092690243264B9A6104E0254A92698243C7
:100A7000234B9A61704729B1214AD2690243204B26
:100A8000DA6104E01E4AD26982431D4BDA61704785
:100A900029B11B4AD2680243194BDA6004E0184AB4
:100AA000D2688243164BDA60704729B1144A126942
:100AB0000243134B1A6104E0114A12698243104B3E
:100AC0001A61704712494039086070470F49C8647D
:100AD00070470B49C87170470948406A40F0807000
:100AE00007494862704701460020054A92680A405B
:100AF0000AB1012000E00020704701498872704768
:100B0000001002400000FFF8FFFFF6FE0000424226
:100B10008004424200127A0000093D0014000020C7
:100B20002400002010B50446FB48844209D101216D
:100B30008803FFF7ADFF00214FF48040FFF7A8FFC7
:100B400032E0F648844209D101214804FFF7ADFFA5
:100B500000214FF40030FFF7A8FF25E0F048844261
:100B600009D101218804FFF7A0FF00214FF4802064
:100B7000FFF79BFF18E0EB48844209D10121C8042C
:100B8000FFF793FF00214FF40020FFF78EFF0BE0EB
:100B9000E548844208D101210805FFF786FF0021BE
:100BA0004FF48010FFF781FF10BD2DE9F04786B0AC
:100BB00005460E460024A24600BFA1460027B08984
:100BC00000B100BF2F462C8A4CF6FF700440F0881D
:100BD00004432C82AC894EF6F3100440B08831896E
:100BE0000843718908430443AC81AC8A4FF6FF4047
:100BF0000440B0890443AC8201A8FFF7C2FEC64896
:100C0000874202D1DDF810A001E0DDF80CA0A88930
:100C100000F4004040B10AEBCA0000EB0A10316852
:100C20004900B0FBF1F807E00AEBCA0000EB0A103C
:100C300031688900B0FBF1F86420B8FBF0F00401E2
:100C40002009642101FB1089A88900F4004040B10B
:100C5000322000EBC900B0FBF1F000F007000443C4
:100C600008E0322000EB09106421B0FBF1F000F045
:100C70000F0004432C8106B0BDE8F0874FF41651F5
:100C8000016000218180C18001810C21418100210E
:100C90008181704710B502460020108A4FF2FF0391
:100CA00018400B884C8823438C882343CC882343EB
:100CB0001843108210BD0021018041808180C180D5
:100CC000704721B1828942F40052828104E0828916
:100CD0004DF6FF731A4082817047F0B50346002439
:100CE00000260025002040F66A17B94200D100BF57
:100CF0001846C1F3421401F01F06012707FA06F552
:100D0000012C01D10C3004E0022C01D1103000E0A4
:100D100014301AB107682F43076002E00768AF4339
:100D20000760F0BD1AB1838A0B43838202E0838A95
:100D30008B4383827047028A4FF6F0731A40028217
:100D4000028A0A430282704782894FF2FF731A4077
:100D5000828182890A438281704721B1828942F06F
:100D60000202828104E082894FF6FD731A4082817B
:100D70007047028A4FF6DF731A400282028A0A43E2
:100D80000282704721B1028A42F48042028204E06A
:100D9000028A4BF6FF731A4002827047C1F30802C1
:100DA0008280704701468888C0F3080070478189B7
:100DB00041F0010181817047028BD2B20283028B24
:100DC00042EA012202837047028B02F47F420283CF
:100DD000028B0A430283704721B1828A42F02002CB
:100DE000828204E0828A4FF6DF731A408282704763
:100DF00021B1828A42F01002828204E0828A4FF698
:100E0000EF731A408282704721B1828A42F0080251
:100E1000828204E0828A4FF6F7731A40828270471A
:100E200021B1828942F40042828103E08289C2F3C7
:100E30000E028281704721B1828A42F4006282826E
:100E400004E0828A4FF2FF731A4082827047828ADE
:100E50004FF6FB731A408282828A0A43828270476D
:100E600021B1828A42F00202828204E0828A4FF635
:100E7000FD731A408282704702460020B1F5007F60
:100E800000D100BF13880B400BB1012000E000200F
:100E9000704701F40072B2F5007F00D100BFCA4371
:100EA0000280704770B50246002400230025002010
:100EB00040F66A16B14200D100BFC1F3421501F0FD
:100EC0001F03012606FA03F3012D02D19689334050
:100ED00006E0022D02D1168A334001E0968A3340A3
:100EE0000C12012606FA04F41688344013B10CB132
:100EF000012000E0002070BD10B50022002340F664
:100F00006A14A14200D100BF0A1201249440A3B286
:100F1000DC43048010BD0000003801400044004064
:100F200000480040004C00400050004000F0BCFD74
:100F300000F060FD00F0E8F900F014FE4FF4A0604E
:100F4000FFF702FA00F078FE12A001F041F94FF429
:100F500080711748FFF773FB00F046FA002000F09D
:100F600061FA00BF13A116A000F07EFA0028F9D0A4
:100F7000002000F0A1FA01F029F813A001F028F9EF
:100F800001201749086003E001F04FF801F059F81B
:100F9000FAE700000D0AD5FDD4DAC5E4D6C3204532
:100FA000535038323636202E2E2E2E2E2E0D0A007D
:100FB000000C01403735343237353732000000003D
:100FC00050696E676A6900000D0AC5E4D6C3204502
:100FD00053503832363620CDEAB1CF0D0A0000002A
:100FE000B4012242704700BFFEE700BFFEE700BF2A
:100FF000FEE700BFFEE770477047704710B500F08E
:1010000040FD10BD10B540F225512048FFF74AFFC2
:10101000D8B11E48FFF7C6FEC4B21D48B0F80004A0
:10102000C0F30E0040F2FF3188420EDA1849B1F8E1
:101030000014C1F30E00411C154AB2F8002461F3FC
:101040000E021349A1F800240C5440F224410F4829
:10105000FFF728FF012817D10D48B0F8000420F44D
:10106000004000F500400A49A1F800040748FFF7D6
:1010700099FEC4B207A1064801F060F808B101204A
:1010800000E000200649087010BD00000048004044
:101090003C000020434C4F5345440D0A0000000023
:1010A0002C000020F0B503460D46164600272946C1
:1010B0000A2E03D0002008702846F0BD33B9302036
:1010C00001F8010B002008702846F6E7002B03DA30
:1010D0002D2001F8010B5B4242F210720DE093FBF0
:1010E000F2F404B937B104F1300001F8010B04FB4C
:1010F000123301270A2092FBF0F2002AEFDC0020D5
:1011000008702846D9E70FB470B586B006460CA81B
:10111000019073E00B9800785C281CD10B98401C60
:101120000B9000786E2809D072280FD10D2130461F
:10113000FFF734FE0B98401C0B900BE00A21304661
:10114000FFF72CFE0B98401C0B9003E00B98401C03
:101150000B9000BF4BE00B980078252840D10B98EE
:10116000401C0B900078642818D0732833D1019864
:1011700010C801900BE021783046FFF70FFE00BF4A
:1011800080213046FFF778FE0028F9D0641C2078D3
:101190000028F0D10B98401C0B9020E0019820C84B
:1011A00001900A2202A92846FFF77CFF02AC0BE05F
:1011B00021783046FFF7F2FD00BF80213046FFF76F
:1011C0005BFE0028F9D0641C20780028F0D10B9831
:1011D000401C0B9003E00B98401C0B9000BF06E0F6
:1011E0000B9810F8011B0B903046FFF7D7FD00BF9E
:1011F00080213046FFF740FE0028F9D00B98007898
:10120000002887D106B070BC5DF814FB08B54FF418
:10121000A060FFF799F827208DF8000000208DF8D6
:1012200001008DF8020001208DF803006846FFF7E9
:1012300090F808BD00B585B001218804FFF71BFCBC
:1012400001210820FFF70AFC4FF48060ADF8100080
:1012500018208DF8130003208DF8120004A9FA4815
:10126000FFF740F94FF40060ADF8100004208DF84E
:10127000130004A9F448FFF735F94FF4E13000906A
:101280000020ADF80400ADF80600ADF80800ADF898
:101290000C000C20ADF80A006946EC48FFF785FC0D
:1012A000012240F22551E948FFF717FD012240F2E3
:1012B0002441E648FFF711FDFFF7A8FF0121E348AD
:1012C000FFF7FFFC05B000BD08B501210820FFF7BE
:1012D000C5FB4FF48070ADF8000010208DF80300BE
:1012E00003208DF802006946D748FFF7FBF801217B
:1012F0000820FFF7B3FB4FF40070ADF8000069461B
:10130000D148FFF7EFF808BD10B5FFF7DDFFFFF795
:1013100091FF4FF40071CC48FFF791F94FF48071C1
:10132000C948FFF78EF910BD10B54FF40071C648DB
:10133000FFF787F9C64800F092FB4FF40071C248EE
:10134000FFF77DF910BD2DE9F04106460C46154624
:101350001F46C048B0F800046FF30E00BD49A1F865
:1013600000043246BCA1B948FFF7CDFE1CB915B93F
:101370000120BDE8F0814FF47A7107FB01F000F025
:101380006EFB0020B349B1F80014C1F30E01B14A5D
:101390005054B4B1ADB12146104600F0CFFE08B1B3
:1013A000012000E0002040B92946AA4800F0C6FE0E
:1013B00008B1012000E0002008B10120D9E7002099
:1013C000D7E744B12146A34800F0B8FE08B1012098
:1013D000CFE70020CDE729469E4800F0AFFE08B1D8
:1013E0000120C6E70020C4E710B500244FF40071C7
:1013F0009548FFF724F99A4800F031FB0BE064238D
:10140000002298A198A0FFF79EFF00B110BDFFF742
:101410008BFF601CC4B20A2CF1DB94A000F0D8FE54
:1014200000BFF3E710B5044624B1012C0AD0022C0A
:1014300018D10FE04FF4FA738FA28AA191A0FFF7A1
:1014400082FF10BD4FF4FA738BA286A190A0FFF724
:101450007AFFF6E74FF4FA7387A282A18FA0FFF715
:1014600072FFEEE70020ECE730B59FB004460D4672
:101470002B4622468CA101A800F0BAFE4FF47A73E5
:10148000002278A101A8FFF75EFF1FB030BD70B544
:10149000A0B004460D4616462B46224687A102A858
:1014A000009600F0A5FE4FF47A7300226DA102A809
:1014B000FFF749FF20B070BD10B586B004460CB1EF
:1014C000012000E00020024682A101A800F090FE69
:1014D0004FF4FA73002263A101A8FFF734FF06B0AE
:1014E00010BDF0B5B9B006460F4614461D4664213E
:1014F00020A800F018FE16B1012E10D107E03B46DF
:1015000078A279A120A8009400F072FE08E03B4682
:1015100079A275A120A8009400F06AFE00E000BF47
:1015200000BF052D06DA20AB2A4674A102A800F000
:101530005FFE04E020AA76A102A800F059FE0A236B
:1015400077A248A102A8FFF7FEFE39B0F0BD70B542
:10155000BCB004460D461646FCB12B46012274A1D0
:101560001EA800F045FE324676A1684600F040FE17
:101570004FF4FA7300223BA11EA8FFF7E4FE50B11E
:101580004FF4FA73002237A16846FFF7DCFE10B172
:1015900001203CB070BD0020FBE72B46002264A177
:1015A0001EA800F025FE4FF4FA7300222DA11EA8FC
:1015B000FFF7C9FEEDE710B54FF4FA73002229A139
:1015C00064A0FFF7C0FEA0B166A1224800F0B6FDFE
:1015D00008B1022010BD66A11E4800F0AFFD08B1A1
:1015E0000320F7E765A11B4800F0A8FD08B104201F
:1015F000F0E70020EEE710B500244FF4FA73002264
:1016000018A154A0FFF79FFE00281CD05EA111482E
:1016100000F094FD10B144F0010401E024F0010455
:101620005DA10C4800F08AFD10B144F0020401E015
:1016300024F002045CA1074800F080FD10B144F0E2
:101640000404BBE0B8E0CDE0000C014000480040DD
:1016500020A107003C00002025730D0A00000000B7
:1016600040420F004F4B0000415400000ABDD3CA56
:10167000D53A4F4B0A0000006E6F206368616E67B9
:101680006500000041542B43574D4F44453D310008
:1016900041542B43574D4F44453D320041542B4359
:1016A000574D4F44453D330041542B43574A415019
:1016B0003D222573222C22257322000041542B4306
:1016C000575341503D222573222C222573222C3161
:1016D0002C25640041542B4349504D55583D2564F9
:1016E0000000000054435000222573222C22257351
:1016F000222C2573000000005544500041542B4318
:10170000495053544152543D25642C257300000028
:1017100041542B43495053544152543D25730000CA
:10172000414C5245415920434F4E4E4543540000D1
:1017300041542B4349505345525645523D25642C44
:101740002573000041542B43495053544F3D25739A
:101750000000000041542B43495053544154555309
:10176000000000005354415455533A320D0A000012
:101770005354415455533A330D0A000053544154C5
:1017800055533A340D0A00002B43495053544154E9
:1017900055533A302C0000002B43495053544154C8
:1017A00055533A312C0000002B43495053544154B7
:1017B00055533A322C00000024F0040465A1694816
:1017C00000F0BCFC10B144F0080401E024F008046F
:1017D00065A1644800F0B2FC10B144F0100401E0CF
:1017E00024F01004204610BD2DE9F04105460F46B7
:1017F0004FF4FA730022AFF294115FA0FFF7A3FD3C
:1018000060A1584800F09AFC06460EB1B61D02E0F1
:101810000020BDE8F081002409E0305D2855285DF6
:10182000222802D10020285503E0601CC4B2BC422B
:10183000F3DB00BF0120ECE710B5FA230022AFF282
:10184000DC1152A0FFF77FFD08B9002010BDFA237C
:1018500052A2AFF2F01152A0FFF775FDF6E710B5F6
:10186000524800F0FCF852A15248FFF74CFC524895
:1018700000F0F5F810BD2DE9F04186B007460C46A2
:1018800015461E464FF0000847B12246AFF27411CC
:101890004848FFF738FC4FF001081CE0052E06DA37
:1018A000AB1C324645A101A800F0A2FC04E0AA1C32
:1018B00047A101A800F09CFC4FF47A73002248A1D4
:1018C00001A8FFF740FD4FF47A73002245A120469E
:1018D000FFF739FD8046404606B0BDE8F08170B59F
:1018E000044600251F48B0F800046FF30E001D49A0
:1018F000A1F800040846B0F8000420F40040A1F864
:10190000000400BF1748B0F80004C00B0028F9D04D
:1019100000201449B1F80014C1F30E01114A5054CB
:101920000CB1154605E031A10E4800F007FC00B1EE
:101930000C4D284670BD10B5044621461D48FFF7E2
:101940002DFA00BF40211B48FFF796FA0128F9D174
:1019500010BD00002B4349505354415455533A3362
:101960002C0000003C0000202B43495053544154AC
:1019700055533A342C00000041542B4349465352EE
:1019800000000000415049502C22000041542B43DC
:1019900049504D4F44453D31000000003E000000DD
:1019A00041542B43495053454E44000040420F00E0
:1019B0002B2B2B000048004020A1070041542B4353
:1019C000495053454E443D25642C256400000000D9
:1019D00041542B43495053454E443D25640000007B
:1019E0003E20000053454E44204F4B002B495044AD
:1019F0000000000030B527480068274AB0FBF2F12C
:101A0000B1F1807F01D301201DE021F07F40401E15
:101A10004FF0E022506150170F22002807DA130719
:101A20001D0E1E4B00F00F04241F1D5503E013076D
:101A30001C0E1B4B1C5400BF00204FF0E022906195
:101A400007201061002008B100BFFEE74FF0E02042
:101A5000006920F001004FF0E021086130BD01B5C0
:101A60001049009808604FF0E020006940F0010044
:101A70004FF0E021086100BF0A4800680028FBD150
:101A800008BD0848006820B106480068401E0549A6
:101A9000086070470000002040420F0018ED00E091
:101AA00000E400E02800002000B585B00121880393
:101AB000FEF7D4FF01210420FEF7D0FF4FF40070A1
:101AC000ADF8100018208DF8130003208DF81200D7
:101AD00004A92248FEF706FD4FF48060ADF810001F
:101AE00004208DF8130004A91C48FEF7FBFC4FF4FA
:101AF000E13000900020ADF80400ADF80600ADF82C
:101B00000800ADF80C000C20ADF80A006946144836
:101B1000FFF74BF801211248FFF7D3F805B000BDDD
:101B200070B504460D46E1B20D48FFF737F900BF26
:101B300080210B48FFF7A0F90028F9D0204670BD9E
:101B400010B5044600BF20210548FFF795F900288D
:101B5000F9D00348FFF726F910BD00000008014046
:101B60000038014010B56FF00400FEF73CFC2E4831
:101B700000682E49B0FBF1F02D4908700846007846
:101B800000EB4001C1EBC0104FF6FF7101EAC0004D
:101B90002849088010BD0146254A12784A434FF073
:101BA000E0235A6100229A611A46126942F001024A
:101BB0001A6100BF4FF0E022106900F001021AB173
:101BC00000F48032002AF5D04FF0E022126922F0B2
:101BD00001024FF0E0231A6100229A61704701462A
:101BE000144A12884A434FF0E0235A6100229A6156
:101BF0001A46126942F001021A6100BF4FF0E0225A
:101C0000106900F001021AB100F48032002AF5D008
:101C10004FF0E022126922F001024FF0E0231A6136
:101C200000229A61704700000000002000127A0034
:101C30002E0000203000002008B501211020FEF702
:101C40000DFF4FF40050ADF8000010208DF8030098
:101C500003208DF8020069460448FEF743FC4FF468
:101C600000510248FEF7EBFC08BD000000100140E7
:101C70002DE9FF5F05468B46584600F071FA1FFAC2
:101C800080F9029800F06CFA87B2039800F068FAC5
:101C90001FFA80F809F10E001FFA80FA002F04DD08
:101CA0000AF1020038441FFA80FAB8F1000F04DD8F
:101CB0000AF1020040441FFA80FA10202870AAF1AD
:101CC000020068700224BAF17F0F02DD0120A870C3
:101CD000032400222046611C8CB22A540422204690
:101CE000611C8CB22A544D222046611C8CB22A54AD
:101CF00051222046611C8CB22A5454222046611C79
:101D00008CB22A542046611C8CB22A5404222046EC
:101D1000611C8CB22A54C2222046611C8CB22A5407
:101D200000222046611C8CB22A543C222046611CB1
:101D30008CB22A5409F47F4002122046611C8CB2F6
:101D40002A542046611C8CB205F80090002605E05C
:101D50001BF80600A1196854701C86B24E45F7DBCB
:101D600004EB090084B2002F16DD07F47F40021255
:101D70002046611C8CB22A542046611C8CB22F5420
:101D8000002605E00298805DA1196854701C86B297
:101D9000BE42F7DBE01984B2B8F1000F18DD08F499
:101DA0007F4002122046611C8CB22A542046611CDE
:101DB0008CB205F80080002605E00398805DA1192B
:101DC0006854701C86B24645F7DB04EB080084B209
:101DD000204604B0BDE8F09F2DE9F05F0546894636
:101DE00092469B46484600F0BBF987B2504600F049
:101DF000B7F91FFA80F8002430222146641C6A5487
:101E0000BBF1000F07D0381D4044C2B22046611C10
:101E10008CB22A5406E0B81C4044C2B22046611C71
:101E20008CB22A5407F47F4002122046611C8CB207
:101E30002A542046611C8CB22F54002605E019F864
:101E40000600A1196854701C86B2BE42F7DBE01987
:101E500084B2BBF1000F13D08448008800F47F40A7
:101E600002122046611C8CB22A5480480278204617
:101E7000611C8CB22A547D480088401C7B49088034
:101E8000002605E01AF80600A1196854701C86B2F5
:101E90004645F7DB04EB080084B2E0B2BDE8F09FF2
:101EA000014640200870022048707148008800F404
:101EB0007F40001288706E480078C8706C480088B7
:101EC000401C6B4A1080042070472DE9F0470546FE
:101ED000884692469946404600F042F986B2002470
:101EE00064480088401C63490880B9F1000F05D0A0
:101EF00082222046611C8CB22A5404E0A222204691
:101F0000611C8CB22A54701DC2B22046611C8CB276
:101F10002A545848008800F47F4002122046611C71
:101F20008CB22A54534802782046611C8CB22A5441
:101F300006F47F4002122046611C8CB22A542046CF
:101F4000611C8CB22E54002705E018F80700E11937
:101F50006854781C87B2B742F7DBA01984B2B9F194
:101F6000000F03D005F804A0601C84B22046BDE831
:101F7000F0870146C020087000204870022070479A
:101F80000146E02008700020487002207047F0B53C
:101F900099B006460C4600270025224636A1684621
:101FA00000F026F94FF4FA73002237A16846FFF7D4
:101FB000CAF900BF03E0705DFFF7BDFC6D1CA542D0
:101FC000F9DB3248FFF74BFD19B0F0BD30B59FB0DB
:101FD000002478222E4901A800F08CF84FF4FA73FF
:101FE0002CA230A101A8FFF7AEF930B12EA331A287
:101FF00032A13448FFF73CFE054629463148FFF739
:10200000C6FF31A000F0E4F80123002232A12D48E0
:10201000FFF75BFF054629462A48FFF7B8FF30A0C7
:1020200000F0D6F801201FB030BD08B5C0208DF8F3
:10203000000000208DF8010002216846FFF7A7FF8D
:1020400008BD30B599B029A42146684600F08FF844
:1020500000236A4619A11B48FFF7BEFE0546294624
:102060001848FFF794FF19B030BD0000320000207F
:10207000340000203600002041542B434950534582
:102080004E443D25640000003E000000A086010093
:10209000FC230008414C5245415920434F4E4E45C8
:1020A000435400004F4B000068616F68616F7961B5
:1020B000796100006C657373656C790073746D33BE
:1020C000320000003E0400200ABFAACABCB6A9D450
:1020D000C42E2E2E0A0000006D7964617461000028
:1020E0000AB6A9D4C4B3C9B9A60A000048656C6C85
:1020F0006F00000040EA01039B0703D009E008C914
:10210000121F08C0042AFAD203E011F8013B00F8BC
:10211000013B521EF9D27047D2B201E000F8012B08
:10212000491EFBD270470022F6E710B513460A4657
:1021300004461946FFF7F0FF204610BD30B50546AE
:102140002A460B4612F8010B13F8014B08B1A042C6
:10215000F8D01CB1002802D06D1CF1E7284630BD34
:10216000421C10F8011B0029FBD1801A704703465E
:1021700011F8012B00F8012B002AF9D118467047FD
:1021800030B50B46014600202022012409E021FA47
:1021900002F59D4205D303FA02F5491B04FA02F544
:1021A0002844151EA2F10102F1DC30BD064C074D9A
:1021B00006E0E06840F0010394E807009847103417
:1021C000AC42F6D3FDF7B8FF74240008942400084D
:1021D0000FB4054B10B503A9044A029800F02CF87F
:1021E00010BC5DF814FB0000211B00083800002023
:1021F0000FB4084B10B504A902AA039800F01CF80C
:10220000044602A9002000F0F3F8204610BC5DF857
:1022100014FB0000F123000802E008C8121F08C1E7
:10222000002AFAD170477047002001E001C1121F57
:10223000002AFBD1704700002DE9FF4F8BB09A4672
:102240000F460546002606E025280BD052460D997C
:1022500090476D1C761C28780028F5D10FB03046C9
:10226000BDE8F08F0024A0460122604900E004434D
:1022700015F8013F203B02FA03F00842F7D1287815
:102280002E2817D115F8010F44F004042A280ED087
:102290006FF02F022878A0F1300109290AD808EB45
:1022A000880102EB410100EB01086D1CF2E757F8D1
:1022B000048B6D1C287869283ED006DC0028CDD020
:1022C00063280BD0642804D136E0732810D0752819
:1022D0004BD052460D999047761C85E017F8040BB9
:1022E0008DF8000000208DF80100E946012003E090
:1022F00057F8049B4FF0FF3061074FF0000401D402
:102300000AE0641C44450DDA8442FADB19F8041033
:102310000029F6D106E0641C8442FCDB19F80410A5
:102320000029F8D1264404E019F8010B52460D9912
:102330009047641EF8D257E001CF4FF00A0B0028F7
:1023400002DA40422D2102E0210504D52B218DF82F
:102350002410012103E0E10705D02021F7E70DF16A
:10236000200908910CE00021F9E701CF4FF00A0B9A
:10237000F9E75946FFF704FF01F1300209F8012D92
:102380000028F6D1ADEB090000F1200B600701D465
:102390004FF00108D84502DDA8EB0B0000E000205B
:1023A0008046002406E009A85246005D0D9990473A
:1023B000641C761C08988442F5DB04E03020524609
:1023C0000D999047761CB8F10001A8F10108F5DCE1
:1023D00005E019F8010B52460D999047761CBBF1A8
:1023E0000001ABF1010BF4DC6D1C34E7092801009E
:1023F0000A68531C0B6010707047000041542B4357
:10240000495053544152543D22544350222C2231BE
:1024100039322E3136382E352E313935222C31389D
:102420003833000000000000000000000000000041
:10243000000000000000000000000000000000009C
:10244000000000000000000000000000000000008C
:10245000000000000000000000000000000000007C
:10246000000000000000000000000000000000006C
:102470000000000094240008000000203C00000040
:1024800018220008D02400083C000020CC080000DE
:102490002822000800A24A040000000000000000FA
:1024A00001020304060708090000000001020304FA
:1024B00001020304060708090204060800000000E0
:1024C000000000000000000000000000000000000C
:0400000508000131BD
:00000001FF
